{
  "contractName": "dBank",
  "abi": [
    {
      "inputs": [
        {
          "internalType": "contract Token",
          "name": "_token",
          "type": "address"
        }
      ],
      "stateMutability": "nonpayable",
      "type": "constructor"
    },
    {
      "anonymous": false,
      "inputs": [
        {
          "indexed": true,
          "internalType": "address",
          "name": "user",
          "type": "address"
        },
        {
          "indexed": false,
          "internalType": "uint256",
          "name": "collateralEtherAmount",
          "type": "uint256"
        },
        {
          "indexed": false,
          "internalType": "uint256",
          "name": "borrowedTokenAmount",
          "type": "uint256"
        }
      ],
      "name": "Borrow",
      "type": "event"
    },
    {
      "anonymous": false,
      "inputs": [
        {
          "indexed": true,
          "internalType": "address",
          "name": "user",
          "type": "address"
        },
        {
          "indexed": false,
          "internalType": "uint256",
          "name": "etherAmount",
          "type": "uint256"
        },
        {
          "indexed": false,
          "internalType": "uint256",
          "name": "timeStart",
          "type": "uint256"
        }
      ],
      "name": "Deposit",
      "type": "event"
    },
    {
      "anonymous": false,
      "inputs": [
        {
          "indexed": true,
          "internalType": "address",
          "name": "user",
          "type": "address"
        },
        {
          "indexed": false,
          "internalType": "uint256",
          "name": "fee",
          "type": "uint256"
        }
      ],
      "name": "PayOff",
      "type": "event"
    },
    {
      "anonymous": false,
      "inputs": [
        {
          "indexed": true,
          "internalType": "address",
          "name": "user",
          "type": "address"
        },
        {
          "indexed": false,
          "internalType": "uint256",
          "name": "etherAmount",
          "type": "uint256"
        },
        {
          "indexed": false,
          "internalType": "uint256",
          "name": "depositTime",
          "type": "uint256"
        },
        {
          "indexed": false,
          "internalType": "uint256",
          "name": "interest",
          "type": "uint256"
        }
      ],
      "name": "Withdraw",
      "type": "event"
    },
    {
      "inputs": [
        {
          "internalType": "address",
          "name": "",
          "type": "address"
        }
      ],
      "name": "collateralEther",
      "outputs": [
        {
          "internalType": "uint256",
          "name": "",
          "type": "uint256"
        }
      ],
      "stateMutability": "view",
      "type": "function",
      "constant": true
    },
    {
      "inputs": [
        {
          "internalType": "address",
          "name": "",
          "type": "address"
        }
      ],
      "name": "depositStart",
      "outputs": [
        {
          "internalType": "uint256",
          "name": "",
          "type": "uint256"
        }
      ],
      "stateMutability": "view",
      "type": "function",
      "constant": true
    },
    {
      "inputs": [
        {
          "internalType": "address",
          "name": "",
          "type": "address"
        }
      ],
      "name": "etherBalanceOf",
      "outputs": [
        {
          "internalType": "uint256",
          "name": "",
          "type": "uint256"
        }
      ],
      "stateMutability": "view",
      "type": "function",
      "constant": true
    },
    {
      "inputs": [
        {
          "internalType": "address",
          "name": "",
          "type": "address"
        }
      ],
      "name": "isBorrowed",
      "outputs": [
        {
          "internalType": "bool",
          "name": "",
          "type": "bool"
        }
      ],
      "stateMutability": "view",
      "type": "function",
      "constant": true
    },
    {
      "inputs": [
        {
          "internalType": "address",
          "name": "_owner",
          "type": "address"
        }
      ],
      "name": "balanceOf",
      "outputs": [
        {
          "internalType": "uint256",
          "name": "",
          "type": "uint256"
        }
      ],
      "stateMutability": "view",
      "type": "function",
      "constant": true
    },
    {
      "inputs": [],
      "name": "deposit",
      "outputs": [],
      "stateMutability": "payable",
      "type": "function",
      "payable": true
    },
    {
      "inputs": [
        {
          "internalType": "uint256",
          "name": "withdrawAmount",
          "type": "uint256"
        }
      ],
      "name": "withdraw",
      "outputs": [],
      "stateMutability": "nonpayable",
      "type": "function"
    },
    {
      "inputs": [],
      "name": "borrow",
      "outputs": [],
      "stateMutability": "payable",
      "type": "function",
      "payable": true
    },
    {
      "inputs": [],
      "name": "payOff",
      "outputs": [],
      "stateMutability": "nonpayable",
      "type": "function"
    }
  ],
  "bytecode": "0x608060405234801561001057600080fd5b506040516112433803806112438339818101604052602081101561003357600080fd5b8101908080519060200190929190505050806000806101000a81548173ffffffffffffffffffffffffffffffffffffffff021916908373ffffffffffffffffffffffffffffffffffffffff160217905550506111af806100946000396000f3fe6080604052600436106100865760003560e01c806375a40d2a1161005957806375a40d2a146101a7578063cdebd9321461020c578063d0e30db014610273578063e68d35691461027d578063ff87930a1461028757610086565b8063179fc99f1461008b5780632e1a7d4d146100f05780633fac68d51461012b57806370a0823114610142575b600080fd5b34801561009757600080fd5b506100da600480360360208110156100ae57600080fd5b81019080803573ffffffffffffffffffffffffffffffffffffffff1690602001909291905050506102ec565b6040518082815260200191505060405180910390f35b3480156100fc57600080fd5b506101296004803603602081101561011357600080fd5b8101908080359060200190929190505050610304565b005b34801561013757600080fd5b506101406106f1565b005b34801561014e57600080fd5b506101916004803603602081101561016557600080fd5b81019080803573ffffffffffffffffffffffffffffffffffffffff169060200190929190505050610b20565b6040518082815260200191505060405180910390f35b3480156101b357600080fd5b506101f6600480360360208110156101ca57600080fd5b81019080803573ffffffffffffffffffffffffffffffffffffffff169060200190929190505050610b69565b6040518082815260200191505060405180910390f35b34801561021857600080fd5b5061025b6004803603602081101561022f57600080fd5b81019080803573ffffffffffffffffffffffffffffffffffffffff169060200190929190505050610b81565b60405180821515815260200191505060405180910390f35b61027b610ba1565b005b610285610d63565b005b34801561029357600080fd5b506102d6600480360360208110156102aa57600080fd5b81019080803573ffffffffffffffffffffffffffffffffffffffff1690602001909291905050506110f5565b6040518082815260200191505060405180910390f35b60026020528060005260406000206000915090505481565b670de0b6b3a764000081029050662386f26fc10000811015610371576040517f08c379a00000000000000000000000000000000000000000000000000000000081526004018080602001828103825260248152602001806111316024913960400191505060405180910390fd5b6000600260003373ffffffffffffffffffffffffffffffffffffffff1673ffffffffffffffffffffffffffffffffffffffff1681526020019081526020016000205490508082111561042b576040517f08c379a000000000000000000000000000000000000000000000000000000000815260040180806020018281038252601d8152602001807f4572726f72202c2020696e73756666696369656e742042616c616e636500000081525060200191505060405180910390fd5b6000600160003373ffffffffffffffffffffffffffffffffffffffff1673ffffffffffffffffffffffffffffffffffffffff16815260200190815260200160002054420390506000662386f26fc10000600260003373ffffffffffffffffffffffffffffffffffffffff1673ffffffffffffffffffffffffffffffffffffffff16815260200190815260200160002054816104c257fe5b046301e33731029050600082820290503373ffffffffffffffffffffffffffffffffffffffff166108fc869081150290604051600060405180830381858888f19350505050158015610518573d6000803e3d6000fd5b5060008054906101000a900473ffffffffffffffffffffffffffffffffffffffff1673ffffffffffffffffffffffffffffffffffffffff166340c10f1933836040518363ffffffff1660e01b8152600401808373ffffffffffffffffffffffffffffffffffffffff16815260200182815260200192505050600060405180830381600087803b1580156105aa57600080fd5b505af11580156105be573d6000803e3d6000fd5b505050506000600160003373ffffffffffffffffffffffffffffffffffffffff1673ffffffffffffffffffffffffffffffffffffffff1681526020019081526020016000208190555084600260003373ffffffffffffffffffffffffffffffffffffffff1673ffffffffffffffffffffffffffffffffffffffff1681526020019081526020016000205403600260003373ffffffffffffffffffffffffffffffffffffffff1673ffffffffffffffffffffffffffffffffffffffff168152602001908152602001600020819055503373ffffffffffffffffffffffffffffffffffffffff167f02f25270a4d87bea75db541cdfe559334a275b4a233520ed6c0a2429667cca9486858460405180848152602001838152602001828152602001935050505060405180910390a25050505050565b60011515600460003373ffffffffffffffffffffffffffffffffffffffff1673ffffffffffffffffffffffffffffffffffffffff16815260200190815260200160002060009054906101000a900460ff161515146107b7576040517f08c379a00000000000000000000000000000000000000000000000000000000081526004018080602001828103825260168152602001807f4572726f722c206c6f616e206e6f74206163746976650000000000000000000081525060200191505060405180910390fd5b60008054906101000a900473ffffffffffffffffffffffffffffffffffffffff1673ffffffffffffffffffffffffffffffffffffffff166323b872dd33306002600360003373ffffffffffffffffffffffffffffffffffffffff1673ffffffffffffffffffffffffffffffffffffffff168152602001908152602001600020548161083e57fe5b046040518463ffffffff1660e01b8152600401808473ffffffffffffffffffffffffffffffffffffffff1681526020018373ffffffffffffffffffffffffffffffffffffffff1681526020018281526020019350505050602060405180830381600087803b1580156108af57600080fd5b505af11580156108c3573d6000803e3d6000fd5b505050506040513d60208110156108d957600080fd5b810190808051906020019092919050505061095c576040517f08c379a000000000000000000000000000000000000000000000000000000000815260040180806020018281038252601b8152602001807f4572726f722c2063616e2774207265636569766520746f6b656e73000000000081525060200191505060405180910390fd5b6000600a600360003373ffffffffffffffffffffffffffffffffffffffff1673ffffffffffffffffffffffffffffffffffffffff16815260200190815260200160002054816109a757fe5b0490503373ffffffffffffffffffffffffffffffffffffffff166108fc82600360003373ffffffffffffffffffffffffffffffffffffffff1673ffffffffffffffffffffffffffffffffffffffff16815260200190815260200160002054039081150290604051600060405180830381858888f19350505050158015610a31573d6000803e3d6000fd5b506000600360003373ffffffffffffffffffffffffffffffffffffffff1673ffffffffffffffffffffffffffffffffffffffff168152602001908152602001600020819055506000600460003373ffffffffffffffffffffffffffffffffffffffff1673ffffffffffffffffffffffffffffffffffffffff16815260200190815260200160002060006101000a81548160ff0219169083151502179055503373ffffffffffffffffffffffffffffffffffffffff167ffd9bbd044fa427970e4d882ebbb4a89ce422dc29b23f2777a14a93ecdf42c644826040518082815260200191505060405180910390a250565b6000600260008373ffffffffffffffffffffffffffffffffffffffff1673ffffffffffffffffffffffffffffffffffffffff168152602001908152602001600020549050919050565b60036020528060005260406000206000915090505481565b60046020528060005260406000206000915054906101000a900460ff1681565b662386f26fc10000341015610c01576040517f08c379a000000000000000000000000000000000000000000000000000000000815260040180806020018281038252602381526020018061110e6023913960400191505060405180910390fd5b34600260003373ffffffffffffffffffffffffffffffffffffffff1673ffffffffffffffffffffffffffffffffffffffff1681526020019081526020016000205401600260003373ffffffffffffffffffffffffffffffffffffffff1673ffffffffffffffffffffffffffffffffffffffff1681526020019081526020016000208190555042600160003373ffffffffffffffffffffffffffffffffffffffff1673ffffffffffffffffffffffffffffffffffffffff1681526020019081526020016000205401600160003373ffffffffffffffffffffffffffffffffffffffff1673ffffffffffffffffffffffffffffffffffffffff168152602001908152602001600020819055503373ffffffffffffffffffffffffffffffffffffffff167f90890809c654f11d6e72a28fa60149770a0d11ec6c92319d6ceb2bb0a4ea1a153442604051808381526020018281526020019250505060405180910390a2565b662386f26fc10000341015610dc3576040517f08c379a00000000000000000000000000000000000000000000000000000000081526004018080602001828103825260258152602001806111556025913960400191505060405180910390fd5b60001515600460003373ffffffffffffffffffffffffffffffffffffffff1673ffffffffffffffffffffffffffffffffffffffff16815260200190815260200160002060009054906101000a900460ff16151514610e89576040517f08c379a00000000000000000000000000000000000000000000000000000000081526004018080602001828103825260198152602001807f4572726f722c206c6f616e20616c72656164792074616b656e0000000000000081525060200191505060405180910390fd5b34600360003373ffffffffffffffffffffffffffffffffffffffff1673ffffffffffffffffffffffffffffffffffffffff1681526020019081526020016000205401600360003373ffffffffffffffffffffffffffffffffffffffff1673ffffffffffffffffffffffffffffffffffffffff1681526020019081526020016000208190555060006002600360003373ffffffffffffffffffffffffffffffffffffffff1673ffffffffffffffffffffffffffffffffffffffff1681526020019081526020016000205481610f5957fe5b04905060008054906101000a900473ffffffffffffffffffffffffffffffffffffffff1673ffffffffffffffffffffffffffffffffffffffff166340c10f1933836040518363ffffffff1660e01b8152600401808373ffffffffffffffffffffffffffffffffffffffff16815260200182815260200192505050600060405180830381600087803b158015610fed57600080fd5b505af1158015611001573d6000803e3d6000fd5b505050506001600460003373ffffffffffffffffffffffffffffffffffffffff1673ffffffffffffffffffffffffffffffffffffffff16815260200190815260200160002060006101000a81548160ff0219169083151502179055503373ffffffffffffffffffffffffffffffffffffffff167fe1979fe4c35e0cef342fef5668e2c8e7a7e9f5d5d1ca8fee0ac6c427fa4153af600360003373ffffffffffffffffffffffffffffffffffffffff1673ffffffffffffffffffffffffffffffffffffffff1681526020019081526020016000205483604051808381526020018281526020019250505060405180910390a250565b6001602052806000526040600020600091509050548156fe4572726f72202c206465706f736974206d757374206265203e3d20302e3031204554484572726f72202c207769746864726177206d757374206265203e3d20302e3031204554484572726f722c20636f6c6c61746572616c206d757374206265203e3d20302e303120455448a2646970667358221220292f41fac5965200c277ab3b6c2e447bbe3c10e50d56afd4dd56fd784d3e8e3d64736f6c63430007060033",
  "immutableReferences": {},
  "source": "pragma solidity >=0.6.0 <0.8.0;\r\n\r\nimport \"./Token.sol\";\r\n\r\ncontract dBank {\r\n\r\n\r\n  Token private token;\r\n\r\n   mapping(address => uint) public depositStart;\r\n  mapping(address => uint) public etherBalanceOf;\r\n  mapping(address => uint) public collateralEther;\r\n\r\n  // mapping(address => bool) public isDeposited;\r\n  mapping(address => bool) public isBorrowed;\r\n\r\n\r\n\r\n  event Deposit(address indexed user,uint etherAmount, uint timeStart);\r\n  event Withdraw(address indexed user,uint etherAmount, uint depositTime , uint interest);\r\n  event Borrow(address indexed user, uint collateralEtherAmount, uint borrowedTokenAmount);\r\n  event PayOff(address indexed user, uint fee);\r\n\r\n  //pass as constructor argument deployed Token contract\r\n  constructor(Token _token) public {\r\n    token = _token;\r\n  }\r\n\r\n  function balanceOf(address _owner) external view returns (uint) {\r\n    return etherBalanceOf[_owner];\r\n  }\r\n  function deposit() payable public {\r\n    //check if msg.sender didn't already deposited funds\r\n    // require(isDeposited[msg.sender]== false, 'Error, deposit already active');\r\n    //check if msg.value is >= than 0.01 ETH\r\n    require(msg.value>=1e16,'Error , deposit must be >= 0.01 ETH');\r\n    \r\n    etherBalanceOf[msg.sender]=etherBalanceOf[msg.sender]+msg.value;//increase msg.sender ether deposit balance\r\n    depositStart[msg.sender] = depositStart[msg.sender] + block.timestamp;//start msg.sender hodling time\r\n    // isDeposited[msg.sender] = true;//set msg.sender deposit status to true\r\n    emit Deposit(msg.sender, msg.value, block.timestamp);//emit Deposit event\r\n  }\r\n\r\n  function withdraw(uint withdrawAmount) public {\r\n    withdrawAmount= withdrawAmount * 1e18;\r\n    // require(isDeposited[msg.sender]==true,'error, no previous deposit');\r\n    //check if msg.sender deposit status is true\r\n    require(withdrawAmount>=1e16,'Error , withdraw must be >= 0.01 ETH');\r\n    uint userBalance = etherBalanceOf[msg.sender];\r\n    require(withdrawAmount <= userBalance,'Error ,  insufficient Balance');\r\n    //assign msg.sender ether deposit balance to variable for event\r\n\r\n    //check user's hodl time\r\n    uint depositTime = block.timestamp - depositStart[msg.sender];\r\n\r\n    //calc interest per second\r\n    uint interestPerSecond = 31668017 * (etherBalanceOf[msg.sender] / 1e16);\r\n    //calc accrued interest\r\n    uint interest = interestPerSecond * depositTime;\r\n\r\n    //send eth to user\r\n    msg.sender.transfer(withdrawAmount);\r\n    token.mint(msg.sender, interest);\r\n    //send interest in tokens to user\r\n\r\n    //reset depositer data\r\n    depositStart[msg.sender]=0;\r\n    etherBalanceOf[msg.sender] = etherBalanceOf[msg.sender] - withdrawAmount;\r\n    \r\n    // isDeposited[msg.sender]=false;\r\n    \r\n    emit Withdraw(msg.sender, withdrawAmount, depositTime, interest);\r\n\r\n    //emit event\r\n  }\r\n\r\n \r\n  function borrow() payable public {\r\n    require(msg.value>=1e16, 'Error, collateral must be >= 0.01 ETH');\r\n    require(isBorrowed[msg.sender] == false, 'Error, loan already taken');\r\n\r\n    //this Ether will be locked till user payOff the loan\r\n    collateralEther[msg.sender] = collateralEther[msg.sender] + msg.value;\r\n\r\n    //calc tokens amount to mint, 50% of msg.value\r\n    uint tokensToMint = collateralEther[msg.sender] / 2;\r\n\r\n    //mint&send tokens to user\r\n    token.mint(msg.sender, tokensToMint);\r\n\r\n    //activate borrower's loan status\r\n    isBorrowed[msg.sender] = true;\r\n\r\n    emit Borrow(msg.sender, collateralEther[msg.sender], tokensToMint);\r\n  }\r\n\r\n  function payOff() public {\r\n    require(isBorrowed[msg.sender] == true, 'Error, loan not active');\r\n    require(token.transferFrom(msg.sender, address(this), collateralEther[msg.sender]/2), \"Error, can't receive tokens\"); //must approve dBank 1st\r\n\r\n    uint fee = collateralEther[msg.sender]/10; //calc 10% fee\r\n\r\n    //send user's collateral minus fee\r\n    msg.sender.transfer(collateralEther[msg.sender]-fee);\r\n\r\n    //reset borrower's data\r\n    collateralEther[msg.sender] = 0;\r\n    isBorrowed[msg.sender] = false;\r\n\r\n    emit PayOff(msg.sender, fee);\r\n  }\r\n}\r\n",
  "sourcePath": "/home/yashraj/Documents/learn/ethereum/dbank/dbank/src/contracts/dBank.sol",
  "compiler": {
    "name": "solc",
    "version": "0.7.6+commit.7338295f.Emscripten.clang"
  },
  "schemaVersion": "3.2.3",
  "updatedAt": "2021-09-26T08:49:03.362Z",
  "networkType": "ethereum",
  "devdoc": {
    "kind": "dev",
    "methods": {},
    "version": 1
  },
  "userdoc": {
    "kind": "user",
    "methods": {},
    "version": 1
  }
}