{
  "contractName": "dBank",
  "abi": [
    {
      "inputs": [
        {
          "internalType": "contract Token",
          "name": "_token",
          "type": "address"
        }
      ],
      "stateMutability": "nonpayable",
      "type": "constructor"
    },
    {
      "anonymous": false,
      "inputs": [
        {
          "indexed": true,
          "internalType": "address",
          "name": "user",
          "type": "address"
        },
        {
          "indexed": false,
          "internalType": "uint256",
          "name": "etherAmount",
          "type": "uint256"
        },
        {
          "indexed": false,
          "internalType": "uint256",
          "name": "timeStart",
          "type": "uint256"
        }
      ],
      "name": "Deposit",
      "type": "event"
    },
    {
      "anonymous": false,
      "inputs": [
        {
          "indexed": true,
          "internalType": "address",
          "name": "user",
          "type": "address"
        },
        {
          "indexed": false,
          "internalType": "uint256",
          "name": "etherAmount",
          "type": "uint256"
        },
        {
          "indexed": false,
          "internalType": "uint256",
          "name": "depositTime",
          "type": "uint256"
        },
        {
          "indexed": false,
          "internalType": "uint256",
          "name": "interest",
          "type": "uint256"
        }
      ],
      "name": "Withdraw",
      "type": "event"
    },
    {
      "inputs": [
        {
          "internalType": "address",
          "name": "",
          "type": "address"
        }
      ],
      "name": "depositStart",
      "outputs": [
        {
          "internalType": "uint256",
          "name": "",
          "type": "uint256"
        }
      ],
      "stateMutability": "view",
      "type": "function",
      "constant": true
    },
    {
      "inputs": [
        {
          "internalType": "address",
          "name": "",
          "type": "address"
        }
      ],
      "name": "etherBalanceOf",
      "outputs": [
        {
          "internalType": "uint256",
          "name": "",
          "type": "uint256"
        }
      ],
      "stateMutability": "view",
      "type": "function",
      "constant": true
    },
    {
      "inputs": [
        {
          "internalType": "address",
          "name": "_owner",
          "type": "address"
        }
      ],
      "name": "balanceOf",
      "outputs": [
        {
          "internalType": "uint256",
          "name": "",
          "type": "uint256"
        }
      ],
      "stateMutability": "view",
      "type": "function",
      "constant": true
    },
    {
      "inputs": [],
      "name": "deposit",
      "outputs": [],
      "stateMutability": "payable",
      "type": "function",
      "payable": true
    },
    {
      "inputs": [],
      "name": "withdraw",
      "outputs": [],
      "stateMutability": "payable",
      "type": "function",
      "payable": true
    },
    {
      "inputs": [],
      "name": "borrow",
      "outputs": [],
      "stateMutability": "payable",
      "type": "function",
      "payable": true
    },
    {
      "inputs": [],
      "name": "payOff",
      "outputs": [],
      "stateMutability": "nonpayable",
      "type": "function"
    }
  ],
  "bytecode": "0x608060405234801561001057600080fd5b5060405161090e38038061090e8339818101604052602081101561003357600080fd5b8101908080519060200190929190505050806000806101000a81548173ffffffffffffffffffffffffffffffffffffffff021916908373ffffffffffffffffffffffffffffffffffffffff1602179055505061087a806100946000396000f3fe6080604052600436106100705760003560e01c806370a082311161004e57806370a08231146100fb578063d0e30db014610160578063e68d35691461016a578063ff87930a1461017457610070565b8063179fc99f146100755780633ccfd60b146100da5780633fac68d5146100e4575b600080fd5b34801561008157600080fd5b506100c46004803603602081101561009857600080fd5b81019080803573ffffffffffffffffffffffffffffffffffffffff1690602001909291905050506101d9565b6040518082815260200191505060405180910390f35b6100e26101f1565b005b3480156100f057600080fd5b506100f96105d6565b005b34801561010757600080fd5b5061014a6004803603602081101561011e57600080fd5b81019080803573ffffffffffffffffffffffffffffffffffffffff1690602001909291905050506105d8565b6040518082815260200191505060405180910390f35b610168610621565b005b6101726107e3565b005b34801561018057600080fd5b506101c36004803603602081101561019757600080fd5b81019080803573ffffffffffffffffffffffffffffffffffffffff1690602001909291905050506107e5565b6040518082815260200191505060405180910390f35b60016020528060005260406000206000915090505481565b662386f26fc10000341015610251576040517f08c379a00000000000000000000000000000000000000000000000000000000081526004018080602001828103825260248152602001806108216024913960400191505060405180910390fd5b6000600160003373ffffffffffffffffffffffffffffffffffffffff1673ffffffffffffffffffffffffffffffffffffffff1681526020019081526020016000205490508034111561030b576040517f08c379a000000000000000000000000000000000000000000000000000000000815260040180806020018281038252601d8152602001807f4572726f72202c2020696e73756666696369656e742042616c616e636500000081525060200191505060405180910390fd5b6000600260003373ffffffffffffffffffffffffffffffffffffffff1673ffffffffffffffffffffffffffffffffffffffff16815260200190815260200160002054420390506000662386f26fc10000600160003373ffffffffffffffffffffffffffffffffffffffff1673ffffffffffffffffffffffffffffffffffffffff16815260200190815260200160002054816103a257fe5b046301e33731029050600082820290503373ffffffffffffffffffffffffffffffffffffffff166108fc349081150290604051600060405180830381858888f193505050501580156103f8573d6000803e3d6000fd5b5060008054906101000a900473ffffffffffffffffffffffffffffffffffffffff1673ffffffffffffffffffffffffffffffffffffffff166340c10f1933836040518363ffffffff1660e01b8152600401808373ffffffffffffffffffffffffffffffffffffffff16815260200182815260200192505050600060405180830381600087803b15801561048a57600080fd5b505af115801561049e573d6000803e3d6000fd5b505050506000600260003373ffffffffffffffffffffffffffffffffffffffff1673ffffffffffffffffffffffffffffffffffffffff1681526020019081526020016000208190555034600160003373ffffffffffffffffffffffffffffffffffffffff1673ffffffffffffffffffffffffffffffffffffffff1681526020019081526020016000205403600160003373ffffffffffffffffffffffffffffffffffffffff1673ffffffffffffffffffffffffffffffffffffffff1681526020019081526020016000208190555060003490503373ffffffffffffffffffffffffffffffffffffffff167f02f25270a4d87bea75db541cdfe559334a275b4a233520ed6c0a2429667cca9434868560405180848152602001838152602001828152602001935050505060405180910390a25050505050565b565b6000600160008373ffffffffffffffffffffffffffffffffffffffff1673ffffffffffffffffffffffffffffffffffffffff168152602001908152602001600020549050919050565b662386f26fc10000341015610681576040517f08c379a00000000000000000000000000000000000000000000000000000000081526004018080602001828103825260238152602001806107fe6023913960400191505060405180910390fd5b34600160003373ffffffffffffffffffffffffffffffffffffffff1673ffffffffffffffffffffffffffffffffffffffff1681526020019081526020016000205401600160003373ffffffffffffffffffffffffffffffffffffffff1673ffffffffffffffffffffffffffffffffffffffff1681526020019081526020016000208190555042600260003373ffffffffffffffffffffffffffffffffffffffff1673ffffffffffffffffffffffffffffffffffffffff1681526020019081526020016000205401600260003373ffffffffffffffffffffffffffffffffffffffff1673ffffffffffffffffffffffffffffffffffffffff168152602001908152602001600020819055503373ffffffffffffffffffffffffffffffffffffffff167f90890809c654f11d6e72a28fa60149770a0d11ec6c92319d6ceb2bb0a4ea1a153442604051808381526020018281526020019250505060405180910390a2565b565b6002602052806000526040600020600091509050548156fe4572726f72202c206465706f736974206d757374206265203e3d20302e3031204554484572726f72202c207769746864726177206d757374206265203e3d20302e303120455448a2646970667358221220467ee8eac19a685eabbef571bcffcd14fc097014640207b4b9892eea2b1d485264736f6c63430007060033",
  "immutableReferences": {},
  "source": "pragma solidity >=0.6.0 <0.8.0;\r\n\r\nimport \"./Token.sol\";\r\n\r\ncontract dBank {\r\n\r\n\r\n  Token private token;\r\n\r\n  mapping(address => uint) public etherBalanceOf;\r\n  mapping(address => uint) public depositStart;\r\n  // mapping(address => bool) public isDeposited;\r\n\r\n\r\n  event Deposit(address indexed user,uint etherAmount, uint timeStart);\r\n  event Withdraw(address indexed user,uint etherAmount, uint depositTime , uint interest);\r\n\r\n  //pass as constructor argument deployed Token contract\r\n  constructor(Token _token) public {\r\n    token = _token;\r\n  }\r\n\r\n  function balanceOf(address _owner) external view returns (uint) {\r\n    return etherBalanceOf[_owner];\r\n  }\r\n  function deposit() payable public {\r\n    //check if msg.sender didn't already deposited funds\r\n    // require(isDeposited[msg.sender]== false, 'Error, deposit already active');\r\n    //check if msg.value is >= than 0.01 ETH\r\n    require(msg.value>=1e16,'Error , deposit must be >= 0.01 ETH');\r\n    \r\n    etherBalanceOf[msg.sender]=etherBalanceOf[msg.sender]+msg.value;//increase msg.sender ether deposit balance\r\n    depositStart[msg.sender] = depositStart[msg.sender] + block.timestamp;//start msg.sender hodling time\r\n    // isDeposited[msg.sender] = true;//set msg.sender deposit status to true\r\n    emit Deposit(msg.sender, msg.value, block.timestamp);//emit Deposit event\r\n  }\r\n\r\n  function withdraw() payable public {\r\n    \r\n    // require(isDeposited[msg.sender]==true,'error, no previous deposit');\r\n    //check if msg.sender deposit status is true\r\n    require(msg.value>=1e16,'Error , withdraw must be >= 0.01 ETH');\r\n    uint userBalance = etherBalanceOf[msg.sender];\r\n    require(msg.value <= userBalance,'Error ,  insufficient Balance');\r\n    //assign msg.sender ether deposit balance to variable for event\r\n\r\n    //check user's hodl time\r\n    uint depositTime = block.timestamp - depositStart[msg.sender];\r\n\r\n    //calc interest per second\r\n    uint interestPerSecond = 31668017 * (etherBalanceOf[msg.sender] / 1e16);\r\n    //calc accrued interest\r\n    uint interest = interestPerSecond * depositTime;\r\n\r\n    //send eth to user\r\n    msg.sender.transfer(msg.value);\r\n    token.mint(msg.sender, interest);\r\n    //send interest in tokens to user\r\n\r\n    //reset depositer data\r\n    depositStart[msg.sender]=0;\r\n    etherBalanceOf[msg.sender] = etherBalanceOf[msg.sender] - msg.value;\r\n    uint withdrawAmount = msg.value;\r\n    // isDeposited[msg.sender]=false;\r\n    \r\n    emit Withdraw(msg.sender, msg.value, depositTime, interest);\r\n\r\n    //emit event\r\n  }\r\n\r\n  function borrow() payable public {\r\n    //check if collateral is >= than 0.01 ETH\r\n    //check if user doesn't have active loan\r\n\r\n    //add msg.value to ether collateral\r\n\r\n    //calc tokens amount to mint, 50% of msg.value\r\n\r\n    //mint&send tokens to user\r\n\r\n    //activate borrower's loan status\r\n\r\n    //emit event\r\n  }\r\n\r\n  function payOff() public {\r\n    //check if loan is active\r\n    //transfer tokens from user back to the contract\r\n\r\n    //calc fee\r\n\r\n    //send user's collateral minus fee\r\n\r\n    //reset borrower's data\r\n\r\n    //emit event\r\n  }\r\n}",
  "sourcePath": "/home/yashraj/Documents/learn/ethereum/dbank/dbank/src/contracts/dBank.sol",
  "compiler": {
    "name": "solc",
    "version": "0.7.6+commit.7338295f.Emscripten.clang"
  },
  "schemaVersion": "3.2.3",
  "updatedAt": "2021-09-26T06:35:21.065Z",
  "networkType": "ethereum",
  "devdoc": {
    "kind": "dev",
    "methods": {},
    "version": 1
  },
  "userdoc": {
    "kind": "user",
    "methods": {},
    "version": 1
  }
}